:020000040800F2
:1000000060060020DD010008C50400088504000822
:10001000C104000899020008090700080000000058
:10002000000000000000000000000000390500088A
:100030009D02000800000000C90400089D06000899
:10004000F7010008F7010008F7010008F7010008B0
:10005000F7010008F7010008F7010008F7010008A0
:10006000F7010008F7010008F7010008F701000890
:10007000F7010008F7010008F7010008F701000880
:10008000F7010008F7010008F7010008F701000870
:10009000F7010008F7010008F7010008F701000860
:1000A000F7010008F7010008F7010008F701000850
:1000B000F7010008F7010008F7010008F701000840
:1000C000F7010008F7010008F7010008F701000830
:1000D000F7010008F7010008F7010008F701000820
:1000E000F7010008F7010008F7010008F701000810
:1000F000F7010008F7010008F7010008F701000800
:10010000F7010008F7010008F7010008F7010008EF
:10011000F7010008F7010008F7010008F7010008DF
:10012000F7010008F7010008F7010008F7010008CF
:1001300000F002F800F042F814A696E8000CB24471
:10014000B344DA4501D100F039F8BAE80F000FA640
:1001500096E83000A5EB040504EB0607AAEB0704BC
:10016000A7F101074FEA15154FEA3414A4F1010471
:10017000AC4201D300F022F813F0010F18BFFB1AB4
:1001800043F0010300F001F8DBE718472806000000
:1001900038060000704700000023002400250026D8
:1001A000103A28BF78C1FBD8520728BF30C148BFDA
:1001B0000B6070471FB51FBD10B510BD00F031F8C2
:1001C0001146FFF7F7FF00F0BFFA00F04FF803B455
:1001D000FFF7F2FF03BC00F057F800000948804722
:1001E00009480047FEE7FEE7FEE7FEE7FEE7FEE719
:1001F000FEE7FEE7FEE7FEE704480549054A064B31
:1002000070470000A10600083101000860000020CE
:1002100060060020600200206002002070477047E6
:100220007047754600F02CF8AE4605006946534607
:1002300020F00700854618B020B5FFF7DDFFBDE8C8
:1002400020404FF000064FF000074FF000084FF03D
:10025000000BAC46ACE8C009ACE8C009ACE8C0098A
:10026000ACE8C00921F007018D46704710B504467F
:10027000AFF300802046BDE81040FFF7A8BF0000A4
:10028000004870470000002001491820ABBEFEE77F
:100290002600020070470000FFE7FEE770470000FD
:1002A00088B007900691002005900490039002907A
:1002B000019000900698C07800F00F000590069815
:1002C000C078C006002806D5FFE706988178059813
:1002D00008430590FFE70698007800284BD0FFE719
:1002E00007980068019000200390FFE70398072813
:1002F0003DD8FFE7039901208840029006980088C6
:100300000299084004900498029988422AD1FFE794
:1003100003988000029002990F2088400090009975
:100320000198884301900598029900FA01F101981B
:10033000084301900698C078282806D1FFE7039962
:1003400001208840079948610BE00698C07848284A
:1003500006D1FFE703990120884007990861FFE76C
:10036000FFE7FFE7FFE7039801300390BEE701983E
:1003700007990860FFE706980088B0F5807F50DB9A
:10038000FFE707984068019000200390FFE703987B
:10039000072842D8FFE7039800F1080101208840B0
:1003A00002900698008802990840049004980299E7
:1003B00088422DD1FFE703988000029002990F2018
:1003C000884000900099019888430190059802990F
:1003D00000FA01F10198084301900698C078282896
:1003E00008D1FFE7039800F1080101208840079930
:1003F0004861FFE70698C078482808D1FFE70398CE
:1004000000F108010120884007990861FFE7FFE734
:10041000FFE7039801300390B9E701980799486016
:10042000FFE708B07047000082B00190ADF80210FD
:1004300000208DF8010001988068BDF80210084284
:1004400004D0FFE701208DF8010003E000208DF8C3
:100450000100FFE79DF8010002B0704782B00190F3
:10046000ADF80210BDF802000199486102B0704772
:1004700082B00190ADF80210BDF802000199086148
:1004800002B07047FFE7FEE780B584B0102001900E
:100490000121029100F01AF8019902988DF80F10CD
:1004A0004FF40051ADF80C108DF80E0041F2000031
:1004B000C4F2010003A9FFF7F3FE04B080BD000001
:1004C000FFE7FEE7704700007047000082B0019030
:1004D0008DF803109DF8030048B1FFE7019A41F23F
:1004E0001801C4F2020108681043086008E0019A8C
:1004F00041F21801C4F20201086890430860FFE766
:1005000002B0704780B582B0042001210091FFF74E
:10051000DDFF009810218DF807100821ADF80410B8
:100520008DF8060040F60000C4F2010001A9FFF7B3
:10053000B7FE02B080BD00007047000080B500F03B
:1005400001F880BD84B000200390029041F20001C8
:10055000C4F20201086840F480300860FFE741F20D
:100560000000C4F20200006800F40030029003981A
:1005700001300390FFE702990020019039B9FFE7AD
:100580000398B0F5A06018BF01200190FFE7019823
:10059000C0070028E3D1FFE741F20000C4F20200E7
:1005A00000688003002803D5FFE70120029002E0E5
:1005B00000200290FFE70298012851D1FFE742F2A4
:1005C0000001C4F20201086840F0100008600868E9
:1005D00020F007000860086840F00200086041F25F
:1005E0000401C4F20201009108680860086808600C
:1005F000086840F480600860086820F47C10086097
:10060000086840F4E810086041F20001C4F20201F9
:10061000086840F080700860FFE741F20000C4F213
:10062000020000688001002801D4FFE7F5E741F2ED
:100630000401C4F20201086820F0030008600868A1
:1006400040F002000860FFE741F20400C4F202003B
:10065000006800F00C00082801D0FFE7F4E700E094
:10066000FFE704B07047000080B582B0042001218C
:100670000091FFF72BFF009828218DF80710022129
:10068000ADF804108DF8060040F60000C4F2010039
:1006900001A9FFF705FE02B080BD00007047000011
:1006A00080B541F20002C4F20202106840F001007D
:1006B000106041F20401C4F2020108680023CFF681
:1006C000FF031840086010684FF6FF73CFF6F6631B
:1006D00018401060106820F480201060086820F432
:1006E000FE00086041F20801C4F202014FF41F004D
:1006F0000860FFF723FF4EF60851CEF200014FF0DD
:100700000060086080BD0000FFE7FEE781B0ADF843
:1007100002000020ADF80000FFE7BDF80200411E16
:10072000ADF8021070B1FFE742F6E060ADF80000EE
:10073000FFE7BDF80000411EADF8001008B1FFE76B
:10074000F7E7EAE701B0704780B584B00020039076
:10075000FFF79AFEFFF7D6FEFFF786FF40F6000090
:10076000C4F201000821FFF783FEFFE740F6000016
:10077000C4F201000221FFF757FE90B9FFE740F6EF
:100780000000C4F20100019008210291FFF766FE0B
:1007900040F6B830FFF7BAFF01980299FFF768FEFC
:1007A00007E040F60000C4F201000821FFF760FEF8
:1007B000FFE7DBE7C4070008000000206006000038
:0407C0009801000894
:04000005080001DD11
:00000001FF
